{
  "contractName": "AdminSetUp",
  "abi": [
    {
      "constant": true,
      "inputs": [],
      "name": "count",
      "outputs": [
        {
          "name": "",
          "type": "uint256"
        }
      ],
      "payable": false,
      "stateMutability": "view",
      "type": "function"
    },
    {
      "constant": false,
      "inputs": [
        {
          "name": "_newadmin",
          "type": "address"
        }
      ],
      "name": "addNewAdmin",
      "outputs": [
        {
          "name": "",
          "type": "bool"
        }
      ],
      "payable": false,
      "stateMutability": "nonpayable",
      "type": "function"
    },
    {
      "constant": true,
      "inputs": [
        {
          "name": "",
          "type": "uint256"
        }
      ],
      "name": "adminlist",
      "outputs": [
        {
          "name": "",
          "type": "address"
        }
      ],
      "payable": false,
      "stateMutability": "view",
      "type": "function"
    },
    {
      "inputs": [],
      "payable": false,
      "stateMutability": "nonpayable",
      "type": "constructor"
    }
  ],
  "bytecode": "0x6060604052336000806101000a81548173ffffffffffffffffffffffffffffffffffffffff021916908373ffffffffffffffffffffffffffffffffffffffff160217905550341561004f57600080fd5b6102ab8061005e6000396000f300606060405260043610610057576000357c0100000000000000000000000000000000000000000000000000000000900463ffffffff16806306661abd1461005c5780630a1b10e114610085578063646f2127146100be575b600080fd5b341561006757600080fd5b61006f610121565b6040518082815260200191505060405180910390f35b341561009057600080fd5b6100bc600480803573ffffffffffffffffffffffffffffffffffffffff16906020019091905050610127565b005b34156100c957600080fd5b6100df60048080359060200190919050506101ef565b604051808273ffffffffffffffffffffffffffffffffffffffff1673ffffffffffffffffffffffffffffffffffffffff16815260200191505060405180910390f35b60025481565b6000809054906101000a900473ffffffffffffffffffffffffffffffffffffffff1673ffffffffffffffffffffffffffffffffffffffff163373ffffffffffffffffffffffffffffffffffffffff1614156101ec5760018054806001018281610190919061022e565b9160005260206000209001600083909190916101000a81548173ffffffffffffffffffffffffffffffffffffffff021916908373ffffffffffffffffffffffffffffffffffffffff160217905550506001805490506002819055505b50565b6001818154811015156101fe57fe5b90600052602060002090016000915054906101000a900473ffffffffffffffffffffffffffffffffffffffff1681565b81548183558181151161025557818360005260206000209182019101610254919061025a565b5b505050565b61027c91905b80821115610278576000816000905550600101610260565b5090565b905600a165627a7a72305820b29965a8585d36564a91114850abd47749347bc4226136e8a00b3e00db964c1e0029",
  "source": "pragma solidity ^0.4.14;\n\n\ncontract AdminSetUp {   \t\t\t  // contract for adding new admin\n\taddress private creator = msg.sender;\n\taddress[] public adminlist;\n\tuint public count;\n\n\tmodifier onlyCreator { \t\t\t // only creator of contract is allowed to add admin\n\t\tif (msg.sender == creator)\n\t\t_;\n\t}\n\n\tfunction addNewAdmin(address _newadmin)public onlyCreator() {\n\t\tadminlist.push(_newadmin);\n\t\tcount = adminlist.length;\n\t}\n\n}\n\n\ncontract Escrow is AdminSetUp {\n\taddress private buyer;    \t    //address of buyer\n\taddress private seller;   \t   //address of seller\n\taddress private arbitrator;\n\n\tevent NotifySeller(uint _amount, address _seller); // triggered when buyer pays to arbitrator\n\n\n\tbool private approval = false;\n\tuint public amount = 0;\n\n\tfunction Escrow(address _seller) public {\n\n\t\tseller = _seller;\n\t\tbuyer = msg.sender;\n\t}\n\n\tfunction payToArbitrator(uint _amount, address _arbitrator) public {   // function for paying arbiter\n\t\tuint f = 0;\n\t\tfor (uint8 i = 0; i < count; i++) {\n\t\t\tif (adminlist[i] == _arbitrator) { \t\t// checking whether the requested arbitrator is admin\n\t\t\t\tarbitrator = _arbitrator;\n\t\t\t\tf = 1;\n\t\t\t\tbreak;\n\t\t\t}\n\t\t}\n\t\tif (msg.sender == buyer && f == 1) {\n\t\t\tapproval = true;\n\t\t\tamount = _amount;\n\t\t\t_arbitrator.transfer(_amount);\n\t\t}\n\t\tif (approval == true) {\n\t\t\tNotifySeller(amount, buyer);\n\t\t}\n\n\n\t}\n\n\tfunction confirm() public {  \t\t\t//buyer confirms once receives the goods\n\t\tif (msg.sender == buyer || msg.sender == arbitrator) {\n\t\t\tpayback();\n\t\t}\n\t}\n\n\tfunction payback() public {   \t\t\t// arbitrator payback to seller ones it get confirmation of receiving goods from buyer\n\t\tif (msg.sender == buyer || msg.sender == arbitrator) {\n\t\t\tseller.transfer(amount);\n\t\t}\n\t}\n}\n",
  "sourcePath": "/Users/sibizulu/Code/Escrow/contracts/Escrow.sol",
  "compiler": {
    "name": "solc",
    "version": "0.4.18+commit.9cf6e910.Emscripten.clang"
  },
  "schemaVersion": "1.0.1",
  "updatedAt": "2017-12-19T04:16:59.598Z"
}