{
  "contractName": "EscrowSale",
  "abi": [
    {
      "constant": true,
      "inputs": [],
      "name": "creator",
      "outputs": [
        {
          "name": "",
          "type": "address"
        }
      ],
      "payable": false,
      "stateMutability": "view",
      "type": "function"
    },
    {
      "constant": false,
      "inputs": [
        {
          "name": "_id",
          "type": "bytes32"
        }
      ],
      "name": "buyerConfirmation",
      "outputs": [],
      "payable": false,
      "stateMutability": "nonpayable",
      "type": "function"
    },
    {
      "constant": false,
      "inputs": [
        {
          "name": "_id",
          "type": "bytes32"
        }
      ],
      "name": "depositToEscrow",
      "outputs": [],
      "payable": true,
      "stateMutability": "payable",
      "type": "function"
    },
    {
      "constant": true,
      "inputs": [
        {
          "name": "",
          "type": "bytes32"
        }
      ],
      "name": "orderdata",
      "outputs": [
        {
          "name": "buyer",
          "type": "address"
        },
        {
          "name": "seller",
          "type": "address"
        },
        {
          "name": "arbitrator",
          "type": "address"
        },
        {
          "name": "amount",
          "type": "uint256"
        },
        {
          "name": "status",
          "type": "bool"
        },
        {
          "name": "used",
          "type": "bool"
        },
        {
          "name": "recieved",
          "type": "bool"
        }
      ],
      "payable": false,
      "stateMutability": "view",
      "type": "function"
    },
    {
      "constant": true,
      "inputs": [
        {
          "name": "",
          "type": "address"
        }
      ],
      "name": "adminlist",
      "outputs": [
        {
          "name": "",
          "type": "bool"
        }
      ],
      "payable": false,
      "stateMutability": "view",
      "type": "function"
    },
    {
      "constant": false,
      "inputs": [
        {
          "name": "_newadmin",
          "type": "address"
        }
      ],
      "name": "addMember",
      "outputs": [
        {
          "name": "",
          "type": "bool"
        }
      ],
      "payable": false,
      "stateMutability": "nonpayable",
      "type": "function"
    },
    {
      "constant": false,
      "inputs": [
        {
          "name": "_id",
          "type": "bytes32"
        }
      ],
      "name": "finalizeOrder",
      "outputs": [],
      "payable": true,
      "stateMutability": "payable",
      "type": "function"
    },
    {
      "constant": false,
      "inputs": [
        {
          "name": "_buyer",
          "type": "address"
        },
        {
          "name": "_seller",
          "type": "address"
        },
        {
          "name": "_arbitrator",
          "type": "address"
        },
        {
          "name": "_amount",
          "type": "uint256"
        },
        {
          "name": "orderId",
          "type": "bytes32"
        }
      ],
      "name": "createEscrow",
      "outputs": [],
      "payable": false,
      "stateMutability": "nonpayable",
      "type": "function"
    },
    {
      "inputs": [],
      "payable": false,
      "stateMutability": "nonpayable",
      "type": "constructor"
    },
    {
      "anonymous": false,
      "inputs": [
        {
          "indexed": false,
          "name": "orderid",
          "type": "bytes32"
        },
        {
          "indexed": false,
          "name": "_amount",
          "type": "uint256"
        },
        {
          "indexed": false,
          "name": "_buyer",
          "type": "address"
        }
      ],
      "name": "NotifySeller",
      "type": "event"
    },
    {
      "anonymous": false,
      "inputs": [
        {
          "indexed": false,
          "name": "orderid",
          "type": "bytes32"
        },
        {
          "indexed": false,
          "name": "_seller",
          "type": "address"
        },
        {
          "indexed": false,
          "name": "_buyer",
          "type": "address"
        }
      ],
      "name": "NotifyConfirmation",
      "type": "event"
    }
  ],
  "bytecode": "0x6060604052341561000f57600080fd5b336000806101000a81548173ffffffffffffffffffffffffffffffffffffffff021916908373ffffffffffffffffffffffffffffffffffffffff160217905550610e6f8061005e6000396000f30060606040526004361061008e576000357c0100000000000000000000000000000000000000000000000000000000900463ffffffff16806302d05d3f146100935780631b8d4648146100e85780631f6cc32b1461010f578063632071fe1461012b5780638831597f14610220578063ca6d56dc14610271578063fab20c66146102c2578063fc19e53f146102de575b600080fd5b341561009e57600080fd5b6100a661036b565b604051808273ffffffffffffffffffffffffffffffffffffffff1673ffffffffffffffffffffffffffffffffffffffff16815260200191505060405180910390f35b34156100f357600080fd5b61010d600480803560001916906020019091905050610390565b005b610129600480803560001916906020019091905050610564565b005b341561013657600080fd5b610150600480803560001916906020019091905050610779565b604051808873ffffffffffffffffffffffffffffffffffffffff1673ffffffffffffffffffffffffffffffffffffffff1681526020018773ffffffffffffffffffffffffffffffffffffffff1673ffffffffffffffffffffffffffffffffffffffff1681526020018673ffffffffffffffffffffffffffffffffffffffff1673ffffffffffffffffffffffffffffffffffffffff16815260200185815260200184151515158152602001831515151581526020018215151515815260200197505050505050505060405180910390f35b341561022b57600080fd5b610257600480803573ffffffffffffffffffffffffffffffffffffffff16906020019091905050610842565b604051808215151515815260200191505060405180910390f35b341561027c57600080fd5b6102a8600480803573ffffffffffffffffffffffffffffffffffffffff16906020019091905050610862565b604051808215151515815260200191505060405180910390f35b6102dc600480803560001916906020019091905050610974565b005b34156102e957600080fd5b610369600480803573ffffffffffffffffffffffffffffffffffffffff1690602001909190803573ffffffffffffffffffffffffffffffffffffffff1690602001909190803573ffffffffffffffffffffffffffffffffffffffff1690602001909190803590602001909190803560001916906020019091905050610af5565b005b6000809054906101000a900473ffffffffffffffffffffffffffffffffffffffff1681565b60016000826000191660001916815260200190815260200160002060000160009054906101000a900473ffffffffffffffffffffffffffffffffffffffff1673ffffffffffffffffffffffffffffffffffffffff163373ffffffffffffffffffffffffffffffffffffffff1614151561040857600080fd5b6001806000836000191660001916815260200190815260200160002060040160026101000a81548160ff0219169083151502179055507fb8e35319c2dc2593ab027dd186c26280130ebee8e94451cb3ab2ad17a4c8a4248160016000846000191660001916815260200190815260200160002060010160009054906101000a900473ffffffffffffffffffffffffffffffffffffffff1660016000856000191660001916815260200190815260200160002060000160009054906101000a900473ffffffffffffffffffffffffffffffffffffffff166040518084600019166000191681526020018373ffffffffffffffffffffffffffffffffffffffff1673ffffffffffffffffffffffffffffffffffffffff1681526020018273ffffffffffffffffffffffffffffffffffffffff1673ffffffffffffffffffffffffffffffffffffffff168152602001935050505060405180910390a150565b60016000826000191660001916815260200190815260200160002060000160009054906101000a900473ffffffffffffffffffffffffffffffffffffffff1673ffffffffffffffffffffffffffffffffffffffff163373ffffffffffffffffffffffffffffffffffffffff161415156105dc57600080fd5b600160008260001916600019168152602001908152602001600020600301543414151561060857600080fd5b6001806000836000191660001916815260200190815260200160002060040160006101000a81548160ff0219169083151502179055506000809054906101000a900473ffffffffffffffffffffffffffffffffffffffff1673ffffffffffffffffffffffffffffffffffffffff166108fc349081150290604051600060405180830381858888f19350505050151561069f57600080fd5b7f1d3971a73ae02b5fda587405f42480953e28dfd1c1e84b5bf369fbe0bbb24058816001600084600019166000191681526020019081526020016000206003015460016000856000191660001916815260200190815260200160002060000160009054906101000a900473ffffffffffffffffffffffffffffffffffffffff166040518084600019166000191681526020018381526020018273ffffffffffffffffffffffffffffffffffffffff1673ffffffffffffffffffffffffffffffffffffffff168152602001935050505060405180910390a150565b60016020528060005260406000206000915090508060000160009054906101000a900473ffffffffffffffffffffffffffffffffffffffff16908060010160009054906101000a900473ffffffffffffffffffffffffffffffffffffffff16908060020160009054906101000a900473ffffffffffffffffffffffffffffffffffffffff16908060030154908060040160009054906101000a900460ff16908060040160019054906101000a900460ff16908060040160029054906101000a900460ff16905087565b60026020528060005260406000206000915054906101000a900460ff1681565b60008060009054906101000a900473ffffffffffffffffffffffffffffffffffffffff1673ffffffffffffffffffffffffffffffffffffffff163373ffffffffffffffffffffffffffffffffffffffff16141561096f57600260008373ffffffffffffffffffffffffffffffffffffffff1673ffffffffffffffffffffffffffffffffffffffff16815260200190815260200160002060009054906101000a900460ff1615151561091257600080fd5b6001600260008473ffffffffffffffffffffffffffffffffffffffff1673ffffffffffffffffffffffffffffffffffffffff16815260200190815260200160002060006101000a81548160ff021916908315150217905550600190505b919050565b60016000826000191660001916815260200190815260200160002060020160009054906101000a900473ffffffffffffffffffffffffffffffffffffffff1673ffffffffffffffffffffffffffffffffffffffff163373ffffffffffffffffffffffffffffffffffffffff161415156109ec57600080fd5b6001151560016000836000191660001916815260200190815260200160002060040160029054906101000a900460ff161515141515610a2a57600080fd5b3460016000836000191660001916815260200190815260200160002060030154141515610a5657600080fd5b60016000826000191660001916815260200190815260200160002060010160009054906101000a900473ffffffffffffffffffffffffffffffffffffffff1673ffffffffffffffffffffffffffffffffffffffff166108fc600160008460001916600019168152602001908152602001600020600301549081150290604051600060405180830381858888f193505050501515610af257600080fd5b50565b610afd610dbd565b60016000836000191660001916815260200190815260200160002060040160019054906101000a900460ff16151515610b3557600080fd5b60011515600260008673ffffffffffffffffffffffffffffffffffffffff1673ffffffffffffffffffffffffffffffffffffffff16815260200190815260200160002060009054906101000a900460ff161515141515610b9457600080fd5b85816000019073ffffffffffffffffffffffffffffffffffffffff16908173ffffffffffffffffffffffffffffffffffffffff168152505084816020019073ffffffffffffffffffffffffffffffffffffffff16908173ffffffffffffffffffffffffffffffffffffffff168152505083816040019073ffffffffffffffffffffffffffffffffffffffff16908173ffffffffffffffffffffffffffffffffffffffff16815250508281606001818152505060018160a00190151590811515815250508060016000846000191660001916815260200190815260200160002060008201518160000160006101000a81548173ffffffffffffffffffffffffffffffffffffffff021916908373ffffffffffffffffffffffffffffffffffffffff16021790555060208201518160010160006101000a81548173ffffffffffffffffffffffffffffffffffffffff021916908373ffffffffffffffffffffffffffffffffffffffff16021790555060408201518160020160006101000a81548173ffffffffffffffffffffffffffffffffffffffff021916908373ffffffffffffffffffffffffffffffffffffffff1602179055506060820151816003015560808201518160040160006101000a81548160ff02191690831515021790555060a08201518160040160016101000a81548160ff02191690831515021790555060c08201518160040160026101000a81548160ff021916908315150217905550905050505050505050565b60e060405190810160405280600073ffffffffffffffffffffffffffffffffffffffff168152602001600073ffffffffffffffffffffffffffffffffffffffff168152602001600073ffffffffffffffffffffffffffffffffffffffff1681526020016000815260200160001515815260200160001515815260200160001515815250905600a165627a7a72305820a49635dfc62dd77b6475fe1b55453966bebf8118167c665131205e18aa1145c10029",
  "source": "pragma solidity ^0.4.14;\n\n\ncontract EscrowSale {\n\tstruct OrderDetails{\n\t\taddress buyer;\n\t\taddress seller;\n\t\taddress arbitrator;\n\t\tuint amount;\n\t\tbool status;\n\t\tbool used;\n\t\tbool recieved;\n\t}\n\taddress public creator;\n\tmapping(bytes32 => OrderDetails)public orderdata;\n\tmapping(address => bool) public adminlist;\n\n\tfunction EscrowSale() public {\n\t\tcreator = msg.sender;\n\t}\n\n\tmodifier onlyCreator {  // only creator of contract is allowed to add admin\n\t\tif (msg.sender == creator)\n\t\t_;\n\t}\n\t\n\tevent NotifySeller(bytes32 orderid, uint _amount, address _buyer);\n\tevent NotifyConfirmation(bytes32 orderid,address _seller, address _buyer);\n\n\tfunction addMember(address _newadmin) public onlyCreator returns(bool){\n\t\trequire(!adminlist[_newadmin]);\n\t\tadminlist[_newadmin] = true;\n\t\treturn true;\n\t}\n\n\tfunction createEscrow(address _buyer,\n\t\taddress _seller,\n\t\taddress _arbitrator,\n\t\tuint _amount,\n\t\tbytes32 orderId) public{\n\t\trequire(!orderdata[orderId].used);\n\t\trequire(adminlist[_arbitrator] == true);\n\t\tOrderDetails memory sd;\n\t\tsd.buyer = _buyer;\n\t\tsd.seller = _seller;\n\t\tsd.arbitrator = _arbitrator;\n\t\tsd.amount = _amount;\n\t\tsd.used = true;\n\n\t\torderdata[orderId] = sd;\n\t}\n\n\tfunction depositToEscrow(bytes32 _id) public payable {\n\t\trequire(msg.sender == orderdata[_id].buyer);\n\t\trequire(msg.value == orderdata[_id].amount);\n\n\t\torderdata[_id].status = true;\n\t\tcreator.transfer(msg.value);\n\t\tNotifySeller(_id, orderdata[_id].amount, orderdata[_id].buyer);\n\t}\n\n\tfunction buyerConfirmation(bytes32 _id) public {\n\t\trequire(msg.sender == orderdata[_id].buyer);\n\n\t\torderdata[_id].recieved = true;\n\t\tNotifyConfirmation(_id,orderdata[_id].seller,orderdata[_id].buyer);\n\t}\n\n\tfunction finalizeOrder(bytes32 _id) public payable{\n\t\trequire(msg.sender == orderdata[_id].arbitrator);\n\t\trequire(orderdata[_id].recieved == true);\n\t\trequire(orderdata[_id].amount == msg.value);\n\n\t\torderdata[_id].seller.transfer(orderdata[_id].amount);\n\t}\n}",
  "sourcePath": "/home/light/Code/escrow/contracts/EscrowSale.sol",
  "compiler": {
    "name": "solc",
    "version": "0.4.18+commit.9cf6e910.Emscripten.clang"
  },
  "schemaVersion": "1.0.1",
  "updatedAt": "2017-12-20T06:04:55.834Z"
}