{
  "contractName": "EscrowSale",
  "abi": [
    {
      "constant": true,
      "inputs": [],
      "name": "creator",
      "outputs": [
        {
          "name": "",
          "type": "address"
        }
      ],
      "payable": false,
      "stateMutability": "view",
      "type": "function"
    },
    {
      "constant": true,
      "inputs": [],
      "name": "seller",
      "outputs": [
        {
          "name": "",
          "type": "address"
        }
      ],
      "payable": false,
      "stateMutability": "view",
      "type": "function"
    },
    {
      "constant": true,
      "inputs": [],
      "name": "orderId",
      "outputs": [
        {
          "name": "",
          "type": "bytes32"
        }
      ],
      "payable": false,
      "stateMutability": "view",
      "type": "function"
    },
    {
      "constant": false,
      "inputs": [
        {
          "name": "_seller",
          "type": "address"
        },
        {
          "name": "_arbitrator",
          "type": "address"
        },
        {
          "name": "key",
          "type": "bytes32"
        }
      ],
      "name": "orderSetting",
      "outputs": [],
      "payable": true,
      "stateMutability": "payable",
      "type": "function"
    },
    {
      "constant": true,
      "inputs": [
        {
          "name": "_id",
          "type": "bytes32"
        }
      ],
      "name": "check",
      "outputs": [
        {
          "name": "",
          "type": "bool"
        }
      ],
      "payable": false,
      "stateMutability": "view",
      "type": "function"
    },
    {
      "constant": true,
      "inputs": [
        {
          "name": "",
          "type": "bytes32"
        }
      ],
      "name": "orderdata",
      "outputs": [
        {
          "name": "buyer",
          "type": "address"
        },
        {
          "name": "seller",
          "type": "address"
        },
        {
          "name": "arbitrator",
          "type": "address"
        },
        {
          "name": "amount",
          "type": "uint256"
        },
        {
          "name": "used",
          "type": "bool"
        }
      ],
      "payable": false,
      "stateMutability": "view",
      "type": "function"
    },
    {
      "constant": true,
      "inputs": [],
      "name": "arbitrator",
      "outputs": [
        {
          "name": "",
          "type": "address"
        }
      ],
      "payable": false,
      "stateMutability": "view",
      "type": "function"
    },
    {
      "constant": true,
      "inputs": [],
      "name": "buyer",
      "outputs": [
        {
          "name": "",
          "type": "address"
        }
      ],
      "payable": false,
      "stateMutability": "view",
      "type": "function"
    },
    {
      "constant": false,
      "inputs": [],
      "name": "payback",
      "outputs": [],
      "payable": true,
      "stateMutability": "payable",
      "type": "function"
    },
    {
      "constant": true,
      "inputs": [
        {
          "name": "",
          "type": "address"
        }
      ],
      "name": "adminlist",
      "outputs": [
        {
          "name": "",
          "type": "bool"
        }
      ],
      "payable": false,
      "stateMutability": "view",
      "type": "function"
    },
    {
      "constant": true,
      "inputs": [],
      "name": "amount",
      "outputs": [
        {
          "name": "",
          "type": "uint256"
        }
      ],
      "payable": false,
      "stateMutability": "view",
      "type": "function"
    },
    {
      "constant": false,
      "inputs": [
        {
          "name": "_newadmin",
          "type": "address"
        }
      ],
      "name": "addMember",
      "outputs": [
        {
          "name": "",
          "type": "bool"
        }
      ],
      "payable": false,
      "stateMutability": "nonpayable",
      "type": "function"
    },
    {
      "constant": false,
      "inputs": [
        {
          "name": "id",
          "type": "bytes32"
        }
      ],
      "name": "order",
      "outputs": [],
      "payable": true,
      "stateMutability": "payable",
      "type": "function"
    },
    {
      "constant": false,
      "inputs": [
        {
          "name": "_seller",
          "type": "address"
        },
        {
          "name": "_buyer",
          "type": "address"
        },
        {
          "name": "_arbitrator",
          "type": "address"
        },
        {
          "name": "_amount",
          "type": "uint256"
        }
      ],
      "name": "saleFunction",
      "outputs": [],
      "payable": true,
      "stateMutability": "payable",
      "type": "function"
    },
    {
      "anonymous": false,
      "inputs": [
        {
          "indexed": false,
          "name": "_amount",
          "type": "uint256"
        },
        {
          "indexed": false,
          "name": "_seller",
          "type": "address"
        }
      ],
      "name": "NotifySeller",
      "type": "event"
    },
    {
      "anonymous": false,
      "inputs": [],
      "name": "success",
      "type": "event"
    }
  ],
  "bytecode": "0x6060604052600060055560006006556000600755336000806101000a81548173ffffffffffffffffffffffffffffffffffffffff021916908373ffffffffffffffffffffffffffffffffffffffff160217905550611028806100626000396000f3006060604052600436106100d0576000357c0100000000000000000000000000000000000000000000000000000000900463ffffffff16806302d05d3f146100d557806308551a531461012a578063163de5e51461017f5780632d2361c6146101b0578063399e07921461020a578063632071fe146102495780636cc6cde1146103285780637150d8ae1461037d578063854bec87146103d25780638831597f146103dc578063aa8c217c1461042d578063ca6d56dc14610456578063e80160ab146104a7578063f9db4e27146104c3575b600080fd5b34156100e057600080fd5b6100e8610538565b604051808273ffffffffffffffffffffffffffffffffffffffff1673ffffffffffffffffffffffffffffffffffffffff16815260200191505060405180910390f35b341561013557600080fd5b61013d61055d565b604051808273ffffffffffffffffffffffffffffffffffffffff1673ffffffffffffffffffffffffffffffffffffffff16815260200191505060405180910390f35b341561018a57600080fd5b610192610583565b60405180826000191660001916815260200191505060405180910390f35b610208600480803573ffffffffffffffffffffffffffffffffffffffff1690602001909190803573ffffffffffffffffffffffffffffffffffffffff1690602001909190803560001916906020019091905050610589565b005b341561021557600080fd5b61022f6004808035600019169060200190919050506107bf565b604051808215151515815260200191505060405180910390f35b341561025457600080fd5b61026e6004808035600019169060200190919050506108bb565b604051808673ffffffffffffffffffffffffffffffffffffffff1673ffffffffffffffffffffffffffffffffffffffff1681526020018573ffffffffffffffffffffffffffffffffffffffff1673ffffffffffffffffffffffffffffffffffffffff1681526020018473ffffffffffffffffffffffffffffffffffffffff1673ffffffffffffffffffffffffffffffffffffffff168152602001838152602001821515151581526020019550505050505060405180910390f35b341561033357600080fd5b61033b61095e565b604051808273ffffffffffffffffffffffffffffffffffffffff1673ffffffffffffffffffffffffffffffffffffffff16815260200191505060405180910390f35b341561038857600080fd5b610390610984565b604051808273ffffffffffffffffffffffffffffffffffffffff1673ffffffffffffffffffffffffffffffffffffffff16815260200191505060405180910390f35b6103da6109aa565b005b34156103e757600080fd5b610413600480803573ffffffffffffffffffffffffffffffffffffffff16906020019091905050610ab6565b604051808215151515815260200191505060405180910390f35b341561043857600080fd5b610440610ad6565b6040518082815260200191505060405180910390f35b341561046157600080fd5b61048d600480803573ffffffffffffffffffffffffffffffffffffffff16906020019091905050610adc565b604051808215151515815260200191505060405180910390f35b6104c1600480803560001916906020019091905050610bed565b005b610536600480803573ffffffffffffffffffffffffffffffffffffffff1690602001909190803573ffffffffffffffffffffffffffffffffffffffff1690602001909190803573ffffffffffffffffffffffffffffffffffffffff16906020019091908035906020019091905050610ce8565b005b6000809054906101000a900473ffffffffffffffffffffffffffffffffffffffff1681565b600360009054906101000a900473ffffffffffffffffffffffffffffffffffffffff1681565b60085481565b610591610f88565b8160088160001916905550600960006008546000191660001916815260200190815260200160002060040160009054906101000a900460ff161515156105d657600080fd5b33816000019073ffffffffffffffffffffffffffffffffffffffff16908173ffffffffffffffffffffffffffffffffffffffff168152505083816020019073ffffffffffffffffffffffffffffffffffffffff16908173ffffffffffffffffffffffffffffffffffffffff168152505082816040019073ffffffffffffffffffffffffffffffffffffffff16908173ffffffffffffffffffffffffffffffffffffffff168152505034816060018181525050600181608001901515908115158152505080600960006008546000191660001916815260200190815260200160002060008201518160000160006101000a81548173ffffffffffffffffffffffffffffffffffffffff021916908373ffffffffffffffffffffffffffffffffffffffff16021790555060208201518160010160006101000a81548173ffffffffffffffffffffffffffffffffffffffff021916908373ffffffffffffffffffffffffffffffffffffffff16021790555060408201518160020160006101000a81548173ffffffffffffffffffffffffffffffffffffffff021916908373ffffffffffffffffffffffffffffffffffffffff1602179055506060820151816003015560808201518160040160006101000a81548160ff02191690831515021790555090505050505050565b600060096000836000191660001916815260200190815260200160002060010160009054906101000a900473ffffffffffffffffffffffffffffffffffffffff1673ffffffffffffffffffffffffffffffffffffffff163373ffffffffffffffffffffffffffffffffffffffff161480156108a3575060096000836000191660001916815260200190815260200160002060020160009054906101000a900473ffffffffffffffffffffffffffffffffffffffff1673ffffffffffffffffffffffffffffffffffffffff163373ffffffffffffffffffffffffffffffffffffffff16145b156108b157600090506108b6565b600190505b919050565b60096020528060005260406000206000915090508060000160009054906101000a900473ffffffffffffffffffffffffffffffffffffffff16908060010160009054906101000a900473ffffffffffffffffffffffffffffffffffffffff16908060020160009054906101000a900473ffffffffffffffffffffffffffffffffffffffff16908060030154908060040160009054906101000a900460ff16905085565b600460009054906101000a900473ffffffffffffffffffffffffffffffffffffffff1681565b600260009054906101000a900473ffffffffffffffffffffffffffffffffffffffff1681565b600460009054906101000a900473ffffffffffffffffffffffffffffffffffffffff1673ffffffffffffffffffffffffffffffffffffffff163373ffffffffffffffffffffffffffffffffffffffff161415610a7c576001600654141515610a1157600080fd5b6002600681905550600360009054906101000a900473ffffffffffffffffffffffffffffffffffffffff1673ffffffffffffffffffffffffffffffffffffffff166108fc349081150290604051600060405180830381858888f193505050501515610a7b57600080fd5b5b60026006541415610ab4577f0b93381b09d3513aa9cb2ebe5461caed8c3f02dd02b71081c871f5a5d0f6ee3060405160405180910390a15b565b60016020528060005260406000206000915054906101000a900460ff1681565b60075481565b60008060009054906101000a900473ffffffffffffffffffffffffffffffffffffffff1673ffffffffffffffffffffffffffffffffffffffff163373ffffffffffffffffffffffffffffffffffffffff161415610be857600160008373ffffffffffffffffffffffffffffffffffffffff1673ffffffffffffffffffffffffffffffffffffffff16815260200190815260200160002060009054906101000a900460ff16151515610b8c57600080fd5b60018060008473ffffffffffffffffffffffffffffffffffffffff1673ffffffffffffffffffffffffffffffffffffffff16815260200190815260200160002060006101000a81548160ff021916908315150217905550600190505b919050565b610bf6816107bf565b1515610c0157600080fd5b610ce560096000836000191660001916815260200190815260200160002060010160009054906101000a900473ffffffffffffffffffffffffffffffffffffffff1660096000846000191660001916815260200190815260200160002060000160009054906101000a900473ffffffffffffffffffffffffffffffffffffffff1660096000856000191660001916815260200190815260200160002060020160009054906101000a900473ffffffffffffffffffffffffffffffffffffffff1660096000866000191660001916815260200190815260200160002060030154610ce8565b50565b83600360006101000a81548173ffffffffffffffffffffffffffffffffffffffff021916908373ffffffffffffffffffffffffffffffffffffffff16021790555082600260006101000a81548173ffffffffffffffffffffffffffffffffffffffff021916908373ffffffffffffffffffffffffffffffffffffffff16021790555060011515600160008473ffffffffffffffffffffffffffffffffffffffff1673ffffffffffffffffffffffffffffffffffffffff16815260200190815260200160002060009054906101000a900460ff161515141515610dc957600080fd5b81600460006101000a81548173ffffffffffffffffffffffffffffffffffffffff021916908373ffffffffffffffffffffffffffffffffffffffff160217905550806007819055506001600581905550600260009054906101000a900473ffffffffffffffffffffffffffffffffffffffff1673ffffffffffffffffffffffffffffffffffffffff163373ffffffffffffffffffffffffffffffffffffffff16148015610e7857506001600554145b15610ee75760016006819055506000809054906101000a900473ffffffffffffffffffffffffffffffffffffffff1673ffffffffffffffffffffffffffffffffffffffff166108fc349081150290604051600060405180830381858888f193505050501515610ee657600080fd5b5b60016006541415610f82577fcf5fe13ab8d606953ceb3b78f22ebdf157b9c1143ed96d101b449d4215f9951c600754600260009054906101000a900473ffffffffffffffffffffffffffffffffffffffff16604051808381526020018273ffffffffffffffffffffffffffffffffffffffff1673ffffffffffffffffffffffffffffffffffffffff1681526020019250505060405180910390a15b50505050565b60a060405190810160405280600073ffffffffffffffffffffffffffffffffffffffff168152602001600073ffffffffffffffffffffffffffffffffffffffff168152602001600073ffffffffffffffffffffffffffffffffffffffff1681526020016000815260200160001515815250905600a165627a7a7230582034caefe7b5cbd8332ec1c8d4248b32e210e0194c0a5338a7625cb3cd76190f9f0029",
  "source": "pragma solidity ^0.4.14;\n\ncontract AdminSetUp {\n\n\taddress public creator;\n\tmapping(address => bool) public adminlist;\n\n\tmodifier onlyCreator {  // only creator of contract is allowed to add admin\n\t\tif (msg.sender == creator)\n\t\t_;\n\t}\n\n\tfunction AdminSetUp() public{\n\t\tcreator = msg.sender;\n\t}\n\n\tfunction addMember(address _newadmin) public onlyCreator returns(bool){\n\t\trequire(!adminlist[_newadmin]);\n\t\tadminlist[_newadmin] = true;\n\t\treturn true;\n\t}\n}\n\n\ncontract Escrow is AdminSetUp {\n\taddress public buyer;       //address of buyer\n\taddress public seller;      //address of seller\n\taddress public arbitrator;\n\tuint f = 0;\n\n\tevent NotifySeller(uint _amount, address _seller);      // triggered when buyer pays to arbitrator\n\tevent success();\n\n\n\tuint private status = 0;\n\tuint public amount = 0;\n\n\tfunction saleFunction(address _seller, address _buyer,address _arbitrator, uint _amount) payable public{     // function for paying arbiter\n\n\t\tseller = _seller;\n\t\tbuyer = _buyer;\n\n\t\trequire(adminlist[_arbitrator] == true);\n\t\tarbitrator = _arbitrator;\n\t\tamount = _amount;\n\t\tf=1;\n\n\t\tif (msg.sender == buyer && f == 1) {\n\t\t\tstatus =1;\n\t\t\t//arbitrator.transfer(msg.value);\n\t\t\tcreator.transfer(msg.value);\n\t\t}\n\t\tif (status == 1) {\n\t\t\tNotifySeller(amount, buyer);\n\t\t}\n\n\t}\n\n\n\tfunction payback() payable public {\n\t\tif (msg.sender == arbitrator) {\n\t\t\trequire(status == 1);\n\t\t\tstatus = 2;\n\t\t\tseller.transfer(msg.value);\n\t\t}\n\n\t\tif(status == 2){\n\n\t\t\tsuccess();\n\n\t\t}\n\n\t}\n\n\n\n}\n\n\ncontract EscrowSale is Escrow{\n\n\n\tstruct OrderDetails{\n\t\taddress buyer;\n\t\taddress seller;\n\t\taddress arbitrator;\n\t\tuint amount;\n\t\tbool used;\n\n\t}\n\t//uint c = 1;\n\tbytes32 public orderId;\n\n\n\tmapping(bytes32 => OrderDetails)public orderdata;\n\n\n\n\tfunction orderSetting(address _seller, address _arbitrator, bytes32 key) public payable {\n\n\t\torderId = key;\n\n\t\trequire(!orderdata[orderId].used);\n\n\t\tOrderDetails memory sd;\n\t\tsd.buyer = msg.sender;\n\t\tsd.seller = _seller;\n\t\tsd.arbitrator = _arbitrator;\n\t\tsd.amount = msg.value;\n\t\tsd.used =true;\n\n\t\torderdata[orderId] = sd;\n\t}\n\n\n\tfunction check(bytes32 _id) public view returns(bool) \n\t{\n\t\tif(msg.sender == orderdata[_id].seller && msg.sender == orderdata[_id].arbitrator)\n\t\t{\n\t\t\treturn false;\n\t\t}\n\n\t\treturn true;\n\t}\n\n\n\tfunction order(bytes32 id) payable public{\n\n\t\trequire(check(id));\n\t\tsaleFunction(orderdata[id].seller,orderdata[id].buyer,orderdata[id].arbitrator,orderdata[id].amount);\n\t}\n\n\n}\n",
  "sourcePath": "/Users/sibizulu/Code/Escrow/contracts/EscrowSale.sol",
  "compiler": {
    "name": "solc",
    "version": "0.4.18+commit.9cf6e910.Emscripten.clang"
  },
  "schemaVersion": "1.0.1",
  "updatedAt": "2017-12-19T04:25:27.473Z"
}